:0400000026EF00F0F7
:100008005B82FACF03F0FBCF04F0F2AC0EEF00F006
:1000180010EF00F020EF00F09DA015EF00F017EFB3
:1000280000F020EF00F09EA01CEF00F01EEF00F0A3
:1000380020EF00F0F2ECD5F004C0FBFF03C0FAFF9C
:080048005B921100CCEFBFF048
:10FB1C00000000000080DE280080C84D0000A776A1
:10FB2C000000349E008012C700809FEE00007E17FC
:10FB3C0001805C400180E9670100C890010055B864
:10FB4C000100060105020503060405050506060766
:10FB5C0005080609050A050B050C060D050E050F13
:10FB6C0005100611051205130614051506160517C2
:10FB7C0005414447484E53555C5F6065696A72772E
:10FB8C00787B7E1F1E1F1E1F1F1E1F1E1F1F1D0189
:10FB9C0080C200000E01000105000F1200000000E1
:10FBAC0000010101004201000000000002020800F7
:10FBBC000F12000000000003010300BB1200000044
:10FBCC00000004020400BB12000000000005040346
:10FBDC0000BB120000000000060201004201000000
:10FBEC0000000007030100420100000000000804AF
:10FBFC000100420100000000000905FF00BB1200DB
:10FC0C00000000000A06FF00BB1200000000000B01
:10FC1C0007FF00BB1200000000000C08FF00BB1225
:10FC2C0000000000000D09FF00BB120000000000E6
:10FC3C000E0AFF00BB1200000000000F0BFF00BB00
:10FC4C001200000000001001FF005E000000000028
:10FC5C0000000104FF00000000010205FF0000008D
:10FC6C00000203000200000000030400FF0000007B
:10FC7C00000407000400000000050600FF0000005F
:10FC8C0000060800A70000000050494331384636F2
:10FC9C00374A36302045746865726E6574003500DD
:10FCAC00FE450144007E2B017B002E9F01FBFFAC27
:10FCBC00540141646420746865206D756420696E1C
:10FCCC00666F004201000001B4A3010F1200000294
:10FCDC00E68B014C45442D44696D6D61626C650089
:10FCEC0056656E646F72204C45440056656E646FA9
:10FCFC007220494400626C6B73697A650055532D10
:10FD0C00313233340052657620312E300052657614
:10FD1C0020312E300052657620312E300056313293
:10FD2C00333400FFFFFFFFFFFF474D54003C2564B9
:10FD3C003E25642025642D252E32642D252E32641B
:10FD4C0054252E32643A252E32643A252E32645ACA
:10FD5C002025642E25642E25642E256420257320F1
:10FD6C0025732025732025735B25735D0D0A0054C4
:10FD7C006F74616C206C656E3A25752020506F7223
:10FD8C00744C656E3A257520616E642073697A65D2
:10FD9C006F66203A25750073797344657363722E10
:10FDAC0030203D20535452494E473A203C3C506F32
:10FDBC0072745F446573633A2000444E5320466F5F
:10FDCC00756E6420257320696E20636163686520FD
:10FDDC0025756C000A0A5374617274696E6720533E
:10FDEC0079736C6F6720617420256C750A0046610D
:10FDFC00696C6564204F70636F6465203D202564D9
:10FE0C00200D0A0069636D702077726F6E67206336
:10FE1C006B736D203A202578004541506F6C5F5014
:10FE2C0041434B45545F4641494C5552450038308F
:10FE3C00322E33206C656E67746820307825303430
:10FE4C006C5800444553545F49505F4E4F545F4DBE
:10FE5C0041544348454400495056345F4348454358
:10FE6C004B53554D5F4641494C530049434D505FF0
:10FE7C00434845434B53554D5F4641494C53005500
:10FE8C0044505F5374617274204661696C65640DF3
:10FE9C000A004152505F49505F4E4F545F4D4154E0
:10FEAC004348454400504F52545F4E4F545F4156A7
:10FEBC0041494C41424C45005443505F43484543F3
:10FECC004B53554D5F4641494C53005544505F438D
:10FEDC004845434B53554D5F4641494C53003830D0
:10FEEC00322E3320747970652030782530346C587C
:10FEFC000054585F4C4F4749435F4E4F545F494441
:10FF0C004C450054252E32643A252E32643A252E67
:10FF1C0032645A0049505F57524F4E475F56455214
:10FF2C0053494F4E004C494E4B5F4E4F545F464F1A
:10FF3C00554E44004D41435F4E4F545F464F554E16
:10FF4C0044002025642E25642E25642E256400256E
:10FF5C00642D252E32642D252E326400444D415FD4
:10FF6C0054494D454F5554004255464645525F4203
:10FF7C00555359003B2056454E444F523A20003BB6
:10FF8C002046575F5245563A20003B2048575F5257
:10FF9C0045563A20003B2053575F5245563A2000B5
:10FFAC003B204D4F44454C3A20006E6574617363A1
:10FFBC006969003C25643E25642000535543434544
:10FFCC005353006F63746574004552524F52006D69
:10FFDC0061696C002025735B00202573006C640044
:10FFEC006C69006C75006C78003E3E002E002D0094
:03FFFC005D0000A5
:020000040001F9
:10000000000E0001DF6F20EE2DF05750D92658501A
:10001000DA22DF50E36F20EE2EF05750D9265850E9
:10002000DA22DF50E26F57C0D9FF58C0DAFFDECFC7
:1000300005F0DDCF06F03EECD8F00009D8B423EF90
:1000400080F025EF80F013EF8DF0090E0001E26FD4
:100050001AECD9F013EF8DF020EE02F05750D926AC
:100060005850DA22B7C2DEFFB8C2DEFFB9C2DEFFE7
:10007000BAC2DEFF20EE06F05750D9265850DA22D9
:10008000E3C2DEFFE4C2DDFF20EE14F05750D926B4
:100090005850DA22DE6ADE6ADE6ADD6A22EEE7F0B6
:1000A00010EE08F05750E1265850E222DECFE6FF6E
:1000B000DECFE6FFDECFE6FFDECFE6FF20EE08F084
:1000C0005750D9265850DA22DECFCAF0DECFCBF017
:1000D000DECFCCF0DECFCDF0010ECA25CE6F000E04
:1000E000CB21CF6F000ECC21D06F000ECD21D16F70
:1000F00020EE0CF05750D9265850DA22CEC0DEFF41
:10010000CFC0DEFFD0C0DEFFD1C0DEFF0201F15163
:100110000001CB6FCA6B22EEF1F0DECFCCF0DDCF69
:10012000CDF0CDC0CCF0CD6BFF0ECC17000ECD17AF
:10013000CA51CC13CB51CD1320EE18F05750D9260D
:100140005850DA22CCC0DEFFCDC0DDFF20EE1CF01F
:100150005750D9265850DA22F7C2DEFFF8C2DDFF29
:1001600020EE38F05750D9265850DA22120EDF6EA2
:1001700020EE33F05750D9265850DA22020EDE6EA8
:10018000000EDD6E20EE35F05750D9265850DA2299
:10019000020EDE6E000EDD6E20EE37F05750D926CF
:1001A0005850DA22030EDF6E57C07DF058C07EF043
:1001B0005FEC99F0030E0001E36F53EF8DF0000E3A
:1001C0000001E36F57C005F058C006F05BECC0F0CB
:1001D00053EF8DF0E251CA6FCB6BCB51000AD8B40C
:1001E000F4EF80F053EF8DF0CA51000AD8B4DFEF7E
:1001F00080F0030AD8B42CEF80F053EF8DF053EF6A
:100200008DF022EEE7F010EE08F05750E12658503E
:10021000E222DECFE6FFDECFE6FFDECFE6FFDECF77
:10022000E6FF010E0201E7250001CA6F000E020180
:10023000E8210001CB6F000E0201E9210001CC6F23
:10024000000E0201EA210001CD6F20EE0CF05750A4
:10025000D9265850DA22CAC0DEFFCBC0DEFFCCC0A0
:10026000DEFFCDC0DEFF0201F1510001CB6FCA6B92
:1002700022EEF1F0DECFCCF0DDCFCDF0CDC0CCF072
:10028000CD6BFF0ECC17000ECD17CA51CC13CB513E
:10029000CD1320EE18F05750D9265850DA22CCC092
:1002A000DEFFCDC0DDFF20EE1CF05750D9265850A0
:1002B000DA22F7C2DEFFF8C2DDFF20EE33F057503E
:1002C000D9265850DA22020EDE6E000EDD6E20EEC8
:1002D00035F05750D9265850DA22020EDE6E000E45
:1002E000DD6E20EE37F05750D9265850DA22030E33
:1002F000DF6E20EE38F05750D9265850DA22120E11
:10030000DF6ED4EF80F020EE33F05750D9265850EE
:10031000DA22000EDE6E000EDD6E20EE10F0575079
:10032000D9265850DA22DECFCAF0DECFCBF0DECFAE
:10033000CCF0DECFCDF0010ECA25CE6F000ECB2162
:10034000CF6F000ECC21D06F000ECD21D16F0201F6
:10035000EB510001CE1913E10201EC510001CF195C
:100360000EE10201ED510001D01909E10201EE5147
:100370000001D119D8A4BFEF81F0C1EF81F06AEF7D
:1003800082F020EE10F05750D9265850DA22DECFF6
:10039000CAF0DECFCBF0DECFCCF0DECFCDF0010E59
:1003A000CA25CE6F000ECB21CF6F000ECC21D06FAF
:1003B000000ECD21D16F20EE10F05750D9265850A5
:1003C000DA22CEC0DEFFCFC0DEFFD0C0DEFFD1C05C
:1003D000DEFF20EE38F05750D9265850DA22100EA2
:1003E000DF6E22EEE7F010EE08F05750E12658508D
:1003F000E222DECFE6FFDECFE6FFDECFE6FFDECF96
:10040000E6FF010E0201E7250001CA6F000E02019E
:10041000E8210001CB6F000E0201E9210001CC6F41
:10042000000E0201EA210001CD6F20EE0CF05750C2
:10043000D9265850DA22CAC0DEFFCBC0DEFFCCC0BE
:10044000DEFFCDC0DEFF0201F1510001CB6FCA6BB0
:1004500022EEF1F0DECFCCF0DDCFCDF0CDC0CCF090
:10046000CD6BFF0ECC17000ECD17CA51CC13CB515C
:10047000CD1320EE18F05750D9265850DA22CCC0B0
:10048000DEFFCDC0DDFF20EE1CF05750D9265850BE
:10049000DA22F7C2DEFFF8C2DDFF010ED26F57C0CD
:1004A0007DF058C07EF05FEC99F00001D219D8A41D
:1004B0005CEF82F05EEF82F053EF8DF0040EE36F9D
:1004C00020EE39F05750D9265850DA22030EDF6E4D
:1004D00053EF8DF022EEEBF010EE10F05750E126C6
:1004E0005850E222DECFE6FFDECFE6FFDECFE6FFAA
:1004F000DECFE6FF20EE38F05750D9265850DA22EA
:10050000140EDF6E010ED36F57C07DF058C07EF021
:100510005FEC99F00001D319D8A491EF82F093EF2A
:1005200082F053EF8DF0DFEF80F020EE33F0575084
:10053000D9265850DA22000EDE6E000EDD6E20EE57
:1005400010F05750D9265850DA22DECFCAF0DECF4D
:10055000CBF0DECFCCF0DECFCDF0010ECA25CE6FD2
:10056000000ECB21CF6F000ECC21D06F000ECD211D
:10057000D16F0201EB510001CE1913E10201EC51E0
:100580000001CF190EE10201ED510001D01909E17E
:100590000201EE510001D119D8A4D1EF82F0D3EFBE
:1005A00082F06BEF83F020EE10F05750D9265850B0
:1005B000DA22DECFCAF0DECFCBF0DECFCCF0DECF5A
:1005C000CDF0010ECA25CE6F000ECB21CF6F000EED
:1005D000CC21D06F000ECD21D16F20EE10F05750FE
:1005E000D9265850DA22CEC0DEFFCFC0DEFFD0C001
:1005F000DEFFD1C0DEFF20EE38F05750D92658502C
:10060000DA22100EDF6E22EEE7F010EE08F05750FF
:10061000E1265850E222DECFE6FFDECFE6FFDECF56
:10062000E6FFDECFE6FF010E0201E7250001CA6FFB
:10063000000E0201E8210001CB6F000E0201E9214A
:100640000001CC6F000E0201EA210001CD6F20EE07
:100650000CF05750D9265850DA22CAC0DEFFCBC062
:10066000DEFFCCC0DEFFCDC0DEFF0201F151000194
:10067000CB6FCA6B22EEF1F0DECFCCF0DDCFCDF048
:10068000CDC0CCF0CD6BFF0ECC17000ECD17CA51EC
:10069000CC13CB51CD1320EE18F05750D92658501B
:1006A000DA22CCC0DEFFCDC0DDFF20EE1CF05750BB
:1006B000D9265850DA22F7C2DEFFF8C2DDFF040E59
:1006C000E36F20EE39F05750D9265850DA22030E46
:1006D000DF6E53EF8DF022EEEBF010EE10F057507E
:1006E000E1265850E222DECFE6FFDECFE6FFDECF86
:1006F000E6FFDECFE6FF20EE38F05750D9265850FF
:10070000DA22040EDF6E010ED46F57C07DF058C0A0
:100710007EF05FEC99F00001D419D8A492EF83F039
:1007200094EF83F053EF8DF0DFEF80F020EE37F0A1
:100730005750D9265850DA22DF50D8B4A2EF83F0B0
:10074000A4EF83F0DDEF83F0010ED56F57C07DF08D
:1007500058C07EF05FEC99F00001D519D8A4B3EF32
:1007600083F0B5EF83F053EF8DF020EE38F0575063
:10077000D9265850DA22DFA4C0EF83F0C2EF83F00D
:10078000C4EF83F0DFEF80F020EE38F05750D92629
:100790005850DA22DFA8CFEF83F0D1EF83F0FFEFDC
:1007A00080F0040EE36F20EE39F05750D9265850F0
:1007B000DA22030EDF6E53EF8DF020EE38F0575043
:1007C000D9265850DA22040EDF6E010ED66F57C0BC
:1007D0007DF058C07EF05FEC99F00001D619D8A4E6
:1007E000F4EF83F0F6EF83F053EF8DF0DFEF80F05E
:1007F000E251CA6FCB6BCB51000AD8B402EF84F040
:1008000053EF8DF0CA51000AD8B4DFEF80F0030A2D
:10081000D8B401EF81F0070AD8B495EF82F0010A4D
:10082000D8B483EF81F00C0AD8B4DFEF80F0030A6C
:10083000D8B4DFEF80F0060AD8B496EF83F053EF18
:100840008DF057C0D9FF58C0DAFF0201E551DE181C
:1008500007E1E651DE18D8A430EF84F032EF84F0DF
:1008600053EF8DF020EE33F05750D9265850DA224E
:10087000000EDE6E000EDD6E20EE02F05750D9261F
:100880005850DA22B751DE180DE1B851DE180AE1EE
:10089000B951DE1807E1BA51DE18D8A452EF84F03E
:1008A00054EF84F09DEF84F020EE06F05750D926E7
:1008B0005850DA22E351DE1807E1E451DE18D8A4DB
:1008C00064EF84F066EF84F09DEF84F020EE10F08A
:1008D0005750D9265850DA22DECFCAF0DECFCBF0FF
:1008E000DECFCCF0DECFCDF0010E0001CA25CE6FF9
:1008F000000ECB21CF6F000ECC21D06F000ECD218A
:10090000D16F0201EB510001CE1913E10201EC514C
:100910000001CF190EE10201ED510001D01909E1EA
:100920000201EE510001D119D8A499EF84F09BEF98
:1009300084F09DEF84F0040EE36F20EE39F0575001
:10094000D9265850DA22030EDF6E53EF8DF020EED9
:1009500002F05750D9265850DA220201B751DE185A
:100960000DE1B851DE180AE1B951DE1807E1BA51BC
:10097000DE18D8A4BEEF84F0C0EF84F053EF8DF002
:1009800020EE06F05750D9265850DA22E351DE18EF
:1009900007E1E451DE18D8A4D0EF84F0D2EF84F060
:1009A00053EF8DF020EE0CF05750D9265850DA2234
:1009B000E751DE180DE1E851DE180AE1E951DE18D1
:1009C00007E1EA51DE18D8A4E8EF84F0EAEF84F0FA
:1009D00053EF8DF020EE10F05750D9265850DA2200
:1009E000DECFCAF0DECFCBF0DECFCCF0DECFCDF065
:1009F000010E0001CA25CE6F000ECB21CF6F000E75
:100A0000CC21D06F000ECD21D16F0201EB5100013E
:100A1000CE1913E10201EC510001CF190EE10201E0
:100A2000ED510001D01909E10201EE510001D11987
:100A3000D8A41DEF85F01FEF85F053EF8DF020EE69
:100A400010F05750D9265850DA22DECFCAF0DECF48
:100A5000CBF0DECFCCF0DECFCDF0010ECA25CE6FCD
:100A6000000ECB21CF6F000ECC21D06F000ECD2118
:100A7000D16F20EE10F05750D9265850DA22CEC050
:100A8000DEFFCFC0DEFFD0C0DEFFD1C0DEFF20EE34
:100A900033F05750D9265850DA22000EDE6E000E81
:100AA000DD6E040EE36F20EE39F05750D926585012
:100AB000DA22030EDF6E53EF8DF020EE33F0575045
:100AC000D9265850DA22000EDE6E000EDD6E20EEC2
:100AD00038F05750D9265850DA22010EDF6E20EE3A
:100AE00033F05750D9265850DA22020EDE6E000E2F
:100AF000DD6E20EE35F05750D9265850DA22020E1E
:100B0000DE6E000EDD6E20EE37F05750D9265850BD
:100B1000DA22050EDF6E050EE36F57C07DF058C078
:100B20007EF05FEC99F053EF8DF057C0D9FF58C0BD
:100B3000DAFF0201E551DE1807E1E651DE18D8A41C
:100B4000A4EF85F0A6EF85F053EF8DF020EE0CF0CA
:100B50005750D9265850DA22E751DE180DE1E851F6
:100B6000DE180AE1E951DE1807E1EA51DE18D8A4DF
:100B7000BCEF85F0BEEF85F053EF8DF020EE02F074
:100B80005750D9265850DA22DE6ADE6ADE6ADD6AFC
:100B900020EE06F05750D9265850DA22000EDE6EAD
:100BA000000EDD6E20EE10F05750D9265850DA2294
:100BB000DE6ADE6ADE6ADD6A20EE14F05750D9265E
:100BC0005850DA22DE6ADE6ADE6ADD6A20EE08F05C
:100BD0005750D9265850DA22DE6ADE6ADE6ADD6AAC
:100BE00020EE0CF05750D9265850DA22DE6ADE6A21
:100BF000DE6ADD6A20EE18F05750D9265850DA2206
:100C0000000EDE6E000EDD6E20EE1CF05750D92671
:100C10005850DA22B40EDE6E050EDD6E010E0001B4
:100C2000E36F53EF8DF020EE37F05750D926585030
:100C3000DA22DF50D8B41FEF86F021EF86F023EFE1
:100C400086F08DEF85F020EE38F05750D9265850B9
:100C5000DA22040EDF6E010ED76F57C07DF058C048
:100C60007EF05FEC99F00001D719D8A43AEF86F036
:100C70003CEF86F053EF8DF020EE02F05750D9266E
:100C80005850DA22DE6ADE6ADE6ADD6A20EE06F09D
:100C90005750D9265850DA22000EDE6E000EDD6E57
:100CA00020EE10F05750D9265850DA22DE6ADE6A5C
:100CB000DE6ADD6A20EE14F05750D9265850DA2249
:100CC000DE6ADE6ADE6ADD6A20EE08F05750D92659
:100CD0005850DA22DE6ADE6ADE6ADD6A20EE0CF047
:100CE0005750D9265850DA22DE6ADE6ADE6ADD6A9B
:100CF00020EE18F05750D9265850DA22000EDE6E3A
:100D0000000EDD6E20EE1CF05750D9265850DA2226
:100D1000B40EDE6E050EDD6E0EEF86F0E251CA6F88
:100D2000CB6BCB51000AD8B498EF86F053EF8DF01F
:100D3000CA51000AD8B45DEF85F0040AD8B4A7EF11
:100D400084F0010AD8B421EF84F00C0AD8B495EFEE
:100D500085F0030AD8B495EF85F0060AD8B413EFEE
:100D600086F053EF8DF020EE02F05750D926585000
:100D7000DA220201B751DE180DE1B851DE180AE19E
:100D8000B951DE1807E1BA51DE18D8A4CAEF86F0CF
:100D9000CCEF86F053EF8DF020EE0CF05750D926B3
:100DA0005850DA22E751DE180DE1E851DE180AE169
:100DB000E951DE1807E1EA51DE18D8A4E2EF86F027
:100DC000E4EF86F053EF8DF020EE14F05750D92663
:100DD0005850DA22EB51DE5CEC51DE58ED51DE5812
:100DE000EE51DE58D8B0F7EF86F0F9EF86F053EF0A
:100DF0008DF020EE10F05750D9265850DA22DECF71
:100E0000CAF0DECFCBF0DECFCCF0DECFCDF0010EDE
:100E10000001CA25CE6F000ECB21CF6F000ECC2172
:100E2000D06F000ECD21D16F0201EB510001CE5DDC
:100E30000201EC510001CF590201ED510001D059DE
:100E40000201EE510001D159D8A029EF87F02BEF14
:100E500087F0FFEF80F020EE10F05750D926585061
:100E6000DA22DECFCAF0DDCFCBF00201EB51000178
:100E7000CA5DE06F0201EC510001CB59E16F20EE39
:100E800025F05750D9265850DA22DECFCAF0DDCFF0
:100E9000CBF0E051CA5FE151CB5B20EE25F057501B
:100EA000D9265850DA22CAC0DEFFCBC0DDFF20EEC3
:100EB00027F05750D9265850DA22DECFCAF0DDCFBE
:100EC000CBF0E051CA27E151CB2320EE27F0575059
:100ED000D9265850DA22CAC0DEFFCBC0DDFF22EE91
:100EE000EBF0FF0EDE24CA6FFF0EDE20CB6FFF0E8D
:100EF000DE20CC6FFF0EDE20CD6F20EE14F05750B9
:100F0000D9265850DA22CAC0DEFFCBC0DEFFCCC0E3
:100F1000DEFFCDC0DEFF22EEEBF010EE10F05750FA
:100F2000E1265850E222DECFE6FFDECFE6FFDECF3D
:100F3000E6FFDECFE6FF0201C951CA11D8A4A3EF34
:100F400087F0A5EF87F0B3EF87F020EE10F0575051
:100F5000D9265850DA22DECF43F3DECF44F3DECF7A
:100F600045F3DECF46F320EE27F05750D9265850F0
:100F7000DA22DE50DE10D8A4C0EF87F0C2EF87F08F
:100F8000E5EF87F020EE29F05750D9265850DA22A5
:100F9000020EDE18D8A4CFEF87F0D1EF87F062EF12
:100FA00088F020EE29F05750D9265850DA22000E4A
:100FB000DF6E20EE33F05750D9265850DA22000E5B
:100FC000DE6E000EDD6E62EF88F0C951CA11D8B432
:100FD000ECEF87F0EEEF87F012EF88F020EE25F0CF
:100FE0005750D9265850DA2283C3DEFF84C3DDFF71
:100FF00020EE2AF05750D9265850DA22C9C2DEFF17
:10100000CAC2DDFF20EE10F05750D9265850DA2220
:1010100043C3DEFF44C3DEFF45C3DEFF46C3DEFF3E
:1010200022EF88F020EE27F05750D9265850DA22C8
:1010300010EE2AF05750E1265850E222DECFE6FFAC
:10104000DDCFE5FF20EE35F05750D9265850DA2293
:10105000020EDE6E000EDD6E20EE37F05750D92600
:101060005850DA22050EDF6E57C07DF058C07EF072
:101070005FEC99F00201C951CA11D8B442EF88F06F
:1010800044EF88F062EF88F003013F510201EB1951
:1010900015E1030140510201EC1910E10301415136
:1010A0000201ED190BE1030142510201EE19D8B41E
:1010B0005CEF88F05EEF88F062EF88F0000ECA6F98
:1010C000000EC96FCD51CE11D8B469EF88F06BEF27
:1010D00088F0FFEF80F022EEE7F010EE08F05750B6
:1010E000E1265850E222DECFE6FFDECFE6FFDECF7C
:1010F000E6FFDECFE6FFCDC2BEF0CEC2BFF037ECDA
:10110000BBF053EF8DF020EE38F05750D9265850F1
:10111000DA22110EDF6E050EE36F20EE33F057502A
:10112000D9265850DA22000EDE6E000EDD6E20EE5B
:1011300033F05750D9265850DA22020EDE6E000ED8
:10114000DD6E20EE35F05750D9265850DA22020EC7
:10115000DE6E000EDD6E20EE37F05750D926585067
:10116000DA22050EDF6E8DEF85F020EE02F057508B
:10117000D9265850DA220201B751DE180DE1B851D4
:10118000DE180AE1B951DE1807E1BA51DE18D8A419
:10119000CCEF88F0CEEF88F053EF8DF020EE0CF01E
:1011A0005750D9265850DA22E751DE180DE1E851A0
:1011B000DE180AE1E951DE1807E1EA51DE18D8A489
:1011C000E4EF88F0E6EF88F053EF8DF020EE2AF0A0
:1011D0005750D9265850DA22000EDE6E000EDD6E12
:1011E00022EEEBF010EE10F05750E1265850E222BC
:1011F000DECFE6FFDECFE6FFDECFE6FFDECFE6FFA7
:1012000020EE0CF05750D9265850DA22DECFCAF023
:10121000DECFCBF0DECFCCF0DECFCDF0010E000183
:10122000CA25CE6F000ECB21CF6F000ECC21D06F20
:10123000000ECD21D16F20EE0CF05750D92658501A
:10124000DA22CEC0DEFFCFC0DEFFD0C0DEFFD1C0CD
:10125000DEFF0201CD51CE11D8B431EF89F033EF6A
:1012600089F049EF89F022EEE7F010EE08F05750D0
:10127000E1265850E222DECFE6FFDECFE6FFDECFEA
:10128000E6FFDECFE6FFCDC2BEF0CEC2BFF037EC48
:10129000BBF020EE39F05750D9265850DA22040E10
:1012A000DF6E20EE33F05750D9265850DA22020E66
:1012B000DE6E000EDD6E20EE35F05750D926585008
:1012C000DA22020EDE6E000EDD6E20EE37F0575091
:1012D000D9265850DA22050EDF6E20EE38F057502E
:1012E000D9265850DA22110EDF6E090E0001E36F85
:1012F0008DEF85F020EE38F05750D9265850DA227D
:10130000040EDF6E57C07DF058C07EF05FEC99F0A0
:10131000DFEF80F020EE37F05750D9265850DA2210
:10132000DF50D8B496EF89F098EF89F09CEF89F000
:1013300003ECD0F053EF8DF020EE38F05750D92663
:101340005850DA22040EDF6E010ED86F57C07DF0C0
:1013500058C07EF05FEC99F00001D819D8A4B3EF23
:1013600089F0B5EF89F053EF8DF0DFEF80F0E251B7
:10137000CA6FCB6BCB51000AD8B4C1EF89F053EFE1
:101380008DF0CA51000AD8B483EF88F0040AD8B4AB
:10139000B3EF86F0020AD8B453EF8DF0010AD8B447
:1013A000B5EF88F00E0AD8B47AEF89F0030AD8B402
:1013B0007AEF89F0060AD8B48AEF89F053EF8DF0FE
:1013C00020EE38F05750D9265850DA22100EDF6E32
:1013D00020EE0CF05750D9265850DA220201E7517E
:1013E000DE180DE1E851DE180AE1E951DE1807E1E7
:1013F000EA51DE18D8A4FFEF89F001EF8AF053EF2D
:101400008DF020EE2AF05750D9265850DA22000EDF
:10141000DE6E000EDD6E20EE10F05750D9265850CB
:10142000DA22DECFCAF0DECFCBF0DECFCCF0DECFDB
:10143000CDF0010E0001CA25CE6F000ECB21CF6F7B
:10144000000ECC21D06F000ECD21D16F20EE10F018
:101450005750D9265850DA22CEC0DEFFCFC0DEFF6B
:10146000D0C0DEFFD1C0DEFF20EE0CF05750D926F1
:101470005850DA22DECFCAF0DECFCBF0DECFCCF090
:10148000DECFCDF0010ECA25CE6F000ECB21CF6F7F
:10149000000ECC21D06F000ECD21D16F20EE0CF0CC
:1014A0005750D9265850DA22CEC0DEFFCFC0DEFF1B
:1014B000D0C0DEFFD1C0DEFF010ED96F57C07DF076
:1014C00058C07EF05FEC99F00001D919D8A46BEFF9
:1014D0008AF06DEF8AF053EF8DF0080EE36F53EF53
:1014E0008DF020EE33F05750D9265850DA22020EF4
:1014F000DE6E000EDD6E20EE37F05750D9265850C4
:10150000DA22010EDF6E060EE36F53EF8DF020EE50
:1015100038F05750D9265850DA22100EDF6E20EEE0
:101520000CF05750D9265850DA220201E751DE1844
:101530000DE1E851DE180AE1E951DE1807E1EA5150
:10154000DE18D8A4A6EF8AF0A8EF8AF053EF8DF04A
:1015500020EE2AF05750D9265850DA22000EDE6EBF
:10156000000EDD6E20EE10F05750D9265850DA22CA
:10157000DECFCAF0DECFCBF0DECFCCF0DECFCDF0C9
:10158000010E0001CA25CE6F000ECB21CF6F000ED9
:10159000CC21D06F000ECD21D16F20EE10F057502E
:1015A000D9265850DA22CEC0DEFFCFC0DEFFD0C031
:1015B000DEFFD1C0DEFF20EE0CF05750D926585088
:1015C000DA22DECFCAF0DECFCBF0DECFCCF0DECF3A
:1015D000CDF0010ECA25CE6F000ECB21CF6F000ECD
:1015E000CC21D06F000ECD21D16F20EE0CF05750E2
:1015F000D9265850DA22CEC0DEFFCFC0DEFFD0C0E1
:10160000DEFFD1C0DEFF010EDA6F57C07DF058C09B
:101610007EF05FEC99F00001DA19D8A412EF8BF09C
:1016200014EF8BF053EF8DF00A0EE36F53EF8DF054
:1016300020EE37F05750D9265850DA22DF50D8B470
:1016400024EF8BF026EF8BF028EF8BF08DEF85F0F9
:1016500020EE38F05750D9265850DA22040EDF6EAB
:10166000010EDB6F57C07DF058C07EF05FEC99F043
:101670000001DB19D8A43FEF8BF041EF8BF053EF63
:101680008DF0DFEF80F0E251CA6FCB6BCB51000AD7
:10169000D8B44DEF8BF053EF8DF0CA51040AD8B493
:1016A00071EF8AF0020AD8B4E0EF89F0010AD8B4E9
:1016B00087EF8AF00B0AD8B418EF8BF053EF8DF058
:1016C00020EE38F05750D9265850DA22100EDF6E2F
:1016D00020EE0CF05750D9265850DA220201E7517B
:1016E000DE180DE1E851DE180AE1E951DE1807E1E4
:1016F000EA51DE18D8A47FEF8BF081EF8BF053EF27
:101700008DF020EE2AF05750D9265850DA22000EDC
:10171000DE6E000EDD6E20EE10F05750D9265850C8
:10172000DA22DECFCAF0DECFCBF0DECFCCF0DECFD8
:10173000CDF0010E0001CA25CE6F000ECB21CF6F78
:10174000000ECC21D06F000ECD21D16F20EE10F015
:101750005750D9265850DA22CEC0DEFFCFC0DEFF68
:10176000D0C0DEFFD1C0DEFF20EE0CF05750D926EE
:101770005850DA22DECFCAF0DECFCBF0DECFCCF08D
:10178000DECFCDF0010ECA25CE6F000ECB21CF6F7C
:10179000000ECC21D06F000ECD21D16F20EE0CF0C9
:1017A0005750D9265850DA22CEC0DEFFCFC0DEFF18
:1017B000D0C0DEFFD1C0DEFF010EDC6F57C07DF070
:1017C00058C07EF05FEC99F00001DC19D8A4EBEF73
:1017D0008BF0EDEF8BF053EF8DF014EF8BF020EEEC
:1017E00037F05750D9265850DA22DF50D8B4FBEFE3
:1017F0008BF0FDEF8BF0FFEF8BF08DEF85F020EE9F
:1018000038F05750D9265850DA22040EDF6E010EF8
:10181000DD6F57C07DF058C07EF05FEC99F000019D
:10182000DD19D8A416EF8CF018EF8CF053EF8DF083
:10183000DFEF80F0E251CA6FCB6BCB51000AD8B416
:1018400024EF8CF053EF8DF0CA51060AD8B460EF44
:101850008BF0010AD8B460EF8BF00B0AD8B4EFEF2D
:101860008BF053EF8DF0E251CA6FCB6BCB51000A76
:10187000D8B43DEF8CF053EF8DF0CA51040AD8B4C0
:1018800014EF8BF053EF8DF020EE02F05750D92675
:101890005850DA220201B751DE180DE1B851DE18B6
:1018A0000AE1B951DE1807E1BA51DE18D8A45BEF9E
:1018B0008CF05DEF8CF053EF8DF020EE06F057507A
:1018C000D9265850DA22E351DE1807E1E451DE1838
:1018D000D8A46DEF8CF06FEF8CF053EF8DF0DFEF4D
:1018E00080F020EE37F05750D9265850DA22DF50DA
:1018F000D8B47DEF8CF07FEF8CF081EF8CF08DEF22
:1019000085F020EE38F05750D9265850DA22040ED0
:10191000DF6E010EDE6F57C07DF058C07EF05FECC9
:1019200099F00001DE19D8A498EF8CF09AEF8CF0B2
:1019300053EF8DF0DFEF80F0E251CA6FCB6BCB51EC
:10194000000AD8B4A6EF8CF053EF8DF0CA51040A08
:10195000D8B444EF8CF0030AD8B444EF8CF00B0AEF
:10196000D8B471EF8CF053EF8DF020EE33F0575078
:10197000D9265850DA22020EDE6E000EDD6E20EE01
:1019800035F05750D9265850DA22020EDE6E000E7E
:10199000DD6E20EE37F05750D9265850DA22030E6C
:1019A000DF6E20EE38F05750D9265850DA22020E5A
:1019B000DF6E57C07DF058C07EF05FEC99F0020EEC
:1019C0000001E36F010EDF6F53EF8DF020EE02F0A8
:1019D0005750D9265850DA22DE6ADE6ADE6ADD6A9E
:1019E00020EE06F05750D9265850DA22000EDE6E4F
:1019F000000EDD6E010EE36FE2EF8CF0E251CA6F74
:101A0000CB6BCB51000AD8B408EF8DF053EF8DF0BB
:101A1000CA51010AD8B4B5EF8CF0030AD8B4E6EF86
:101A20008CF053EF8DF020EE2DF05750D926585002
:101A3000DA22DF500001CA6FCB6BCB51000AD8B459
:101A400024EF8DF053EF8DF0CA51000AD8B4FEEFA9
:101A50008CF0010AD8B4EAEF80F0030AD8B4F8EFAA
:101A600083F0010AD8B48EEF86F0070AD8B4B7EF36
:101A700089F0010AD8B443EF8BF0030AD8B41AEF07
:101A80008CF0010AD8B453EF8DF00F0AD8B433EFBD
:101A90008CF0010AD8B49CEF8CF0030AD8B4DFEFC5
:101AA00080F053EF8DF020EE2EF05750D92658508D
:101AB000DA220D0EDF6E20EE2DF05750D926585049
:101AC000DA22E3C0DFFF0001DF51120049C0D9FF75
:101AD0004AC0DAFFDECFF6FFDDCFF7FF000EF86E6B
:101AE0000800F550250AD8A478EF8DF07AEF8DF034
:101AF000FAEF91F049C0D9FF4AC0DAFFDE2A000EA2
:101B0000DD22000E0201BC6F000EBB6FBBC2BFF234
:101B1000BCC2C0F2BD69BE69000E0001716F000E4B
:101B2000706FE0EF8DF00201BF8149C0D9FF4AC05C
:101B3000DAFFDE2A000EDD22E0EF8DF00201BF8326
:101B400095EF8DF00201BF8595EF8DF00201BF8703
:101B500095EF8DF00201BF8995EF8DF0000E716F4A
:101B6000010E706FE0EF8DF049C0D9FF4AC0DAFF77
:101B7000DECFF6FFDDCFF7FF000EF86E0800F55060
:101B8000606F616B6151000AD8B4C9EF8DF0AEEFA0
:101B90008DF06051200AD8B4A6EF8DF0030AD8B4B6
:101BA000AAEF8DF0080AD8B4A2EF8DF0060AD8B4D7
:101BB00093EF8DF01D0AD8B49EEF8DF0AEEF8DF04F
:101BC000000170517111D8B4E8EF8DF0EAEF8DF09B
:101BD000B4EF8DF00201BFA1F0EF8DF0F2EF8DF0C8
:101BE000F3EF8DF0BF9349C0D9FF4AC0DAFFDECFD3
:101BF000F6FFDDCFF7FF000EF86E0800F5502A0A59
:101C0000D8A405EF8EF007EF8EF030EF8EF049C0CC
:101C1000D9FF4AC0DAFFDE2A000EDD224BC0D9FF11
:101C20004CC0DAFFDFCF60F0020EDE26DFCF61F0BE
:101C3000000EDD2260C0D9FF61C0DAFFDECFBBF24B
:101C4000DDCFBCF2BCBF29EF8EF027EF8EF076EF30
:101C50008EF0BF81BB6DBC1FD8B0BC2B76EF8EF071
:101C600049C0D9FF4AC0DAFFDECF0CF0DDCF0DF05E
:101C700098ECB2F00CC0BBF20DC0BCF247EF8EF096
:101C800049C0D9FF4AC0DAFFDE2A000EDD22D00E9D
:101C90000001606FFF0E616F49C0D9FF4AC0DAFFD3
:101CA000DECFF6FFDDCFF7FF000EF86E0800F5502F
:101CB000626F636B605162276151632363510AE174
:101CC0000A0E625DD8A067EF8EF06AEF8EF0010E0B
:101CD0006BEF8EF0000E726F736B72517311D8A49C
:101CE00074EF8EF076EF8EF040EF8EF049C0D9FFA2
:101CF0004AC0DAFFDECFF6FFDDCFF7FF000EF86E49
:101D00000800F5502E0AD8A488EF8EF08AEF8EF0E6
:101D10000DEF8FF0000E0201BE6F000EBD6F49C0C7
:101D2000D9FF4AC0DAFFDE2A000EDD2249C0D9FF02
:101D30004AC0DAFFDECFF6FFDDCFF7FF000EF86E08
:101D40000800F5502A0AD8A4A8EF8EF0AAEF8EF06A
:101D5000C7EF8EF049C0D9FF4AC0DAFFDE2A000E75
:101D6000DD224BC0D9FF4CC0DAFFDFCF60F0020E9E
:101D7000DE26DFCF61F0000EDD2260C0D9FF61C03A
:101D8000DAFFDECFBDF2DDCFBEF20DEF8FF049C03E
:101D9000D9FF4AC0DAFFDECF0CF0DDCF0DF098ECB2
:101DA000B2F00CC0BDF20DC0BEF2DEEF8EF049C045
:101DB000D9FF4AC0DAFFDE2A000EDD22D00E000174
:101DC000606FFF0E616F49C0D9FF4AC0DAFFDECFF6
:101DD000F6FFDDCFF7FF000EF86E0800F550626FDA
:101DE000636B605162276151632363510AE10A0EFC
:101DF000625DD8A0FEEF8EF001EF8FF0010E02EFD2
:101E00008FF0000E746F756B74517511D8A40BEFC1
:101E10008FF00DEF8FF0D7EF8EF049C0D9FF4AC099
:101E2000DAFFDECFF6FFDDCFF7FF000EF86E080019
:101E3000F550640AD8B41FEF8FF021EF8FF035EF23
:101E40008FF049C0D9FF4AC0DAFFDECFF6FFDDCF01
:101E5000F7FF000EF86E0800F550690AD8A433EFBA
:101E60008FF035EF8FF076EF8FF049C0D9FF4AC081
:101E7000DAFFDE2A000EDD224BC0D9FF4CC0DAFFAC
:101E8000DFCF60F0020EDE26DFCF61F0000EDD2234
:101E900060C0D9FF61C0DAFFDECF76F0DDCF77F02A
:101EA0000001000E77BFFF0E786F796F7A6F7B6F3E
:101EB0007C6F7D6F47C020F048C021F076C022F0D3
:101EC00077C023F078C024F079C025F07AC026F0DE
:101ED0007BC027F07CC028F07DC029F0A6ECA4F0E0
:101EE00020C047F021C048F017EF92F049C0D9FF59
:101EF0004AC0DAFFDECF05F0DDCF06F0E90E076E4F
:101F0000FF0E086E000E0A6E020E096E10ECC4F091
:101F100005500610D8B48FEF8FF091EF8FF0ACEF33
:101F20008FF049C0D9FF4AC0DAFFDECF05F0DDCF20
:101F300006F0EC0E076EFF0E086E000E0A6E020E23
:101F4000096E10ECC4F005500610D8A4AAEF8FF06B
:101F5000ACEF8FF0F0EF8FF0020E49C0D9FF4AC00E
:101F6000DAFFDE26000EDD224BC0D9FF4CC0DAFFBF
:101F7000DFCF60F0040EDE26DFCF61F0000EDD2241
:101F800060C0D9FF61C0DAFFDECF62F0DECF63F060
:101F9000DECF64F0DECF65F062C066F063C067F04C
:101FA00064C068F065C069F000016A6B69BF6A6966
:101FB0006AC06BF06AC06CF06AC06DF066C076F003
:101FC00067C077F068C078F069C079F06AC07AF0CD
:101FD0006BC07BF06CC07CF06DC07DF05AEF8FF071
:101FE00049C0D9FF4AC0DAFFDECFF6FFDDCFF7FFE9
:101FF000000EF86E0800F550730AD8A402EF90F0B6
:1020000004EF90F02FEF90F049C0D9FF4AC0DAFFFB
:10201000DE2A000EDD224BC0D9FF4CC0DAFFDFCF35
:1020200060F0020EDE26DFCF61F0000EDD2260C020
:10203000D9FF61C0DAFFDECF6EF0DDCF6FF047C0B1
:102040000EF048C00FF06EC010F06FC011F02EEC13
:10205000B8F00EC047F00FC048F017EF92F049C03B
:10206000D9FF4AC0DAFFDECFF6FFDDCFF7FF000E63
:10207000F86E0800F550750AD8A441EF90F043EFD0
:1020800090F085EF90F049C0D9FF4AC0DAFFDE2A10
:10209000000EDD224BC0D9FF4CC0DAFFDFCF60F06D
:1020A000020EDE26DFCF61F0000EDD2260C0D9FF18
:1020B00061C0DAFFDECF62F0DDCF63F062C07FF097
:1020C00063C080F00001816B826B836B846B856BD6
:1020D000866B47C020F048C021F07FC022F080C04E
:1020E00023F081C024F082C025F083C026F084C094
:1020F00027F085C028F086C029F096ECB1F020C00A
:1021000047F021C048F017EF92F049C0D9FF4AC00C
:10211000DAFFDECF05F0DDCF06F0EF0E076EFF0E23
:10212000086E000E0A6E020E096E10ECC4F0055027
:102130000610D8A49EEF90F0A0EF90F0CFEF90F0B3
:10214000020E49C0D9FF4AC0DAFFDE26000EDD22AA
:102150004BC0D9FF4CC0DAFFDFCF60F0040EDE26A3
:10216000DFCF61F0000EDD2260C0D9FF61C0DAFF71
:10217000DECF62F0DECF63F0DECF64F0DECF65F05D
:10218000000162517F6F6351806F6451816F6551AF
:10219000826F836B846B856B866B69EF90F049C0AF
:1021A000D9FF4AC0DAFFDECFF6FFDDCFF7FF000E22
:1021B000F86E0800F550780AD8B4E1EF90F0E3EF3C
:1021C00090F0F7EF90F049C0D9FF4AC0DAFFDECFB8
:1021D000F6FFDDCFF7FF000EF86E0800F550580A45
:1021E000D8A4F5EF90F0F7EF90F048EF91F049C0E8
:1021F000D9FF4AC0DAFFDECFF6FFDDCFF7FF000ED2
:10220000F86E0800F5CF7EF049C0D9FF4AC0DAFF6A
:10221000DE2A000EDD224BC0D9FF4CC0DAFFDFCF33
:1022200060F0020EDE26DFCF61F0000EDD2260C01E
:10223000D9FF61C0DAFFDECF62F0DDCF63F062C0AC
:102240007FF063C080F00001816B826B836B846BD5
:10225000856B866B47C020F048C021F07FC022F01C
:1022600080C023F081C024F082C025F083C026F016
:1022700084C027F085C028F086C029F07EC02AF0EF
:1022800089ECA7F020C047F021C048F017EF92F08A
:1022900049C0D9FF4AC0DAFFDECF05F0DDCF06F036
:1022A000F20E076EFF0E086E000E0A6E020E096E29
:1022B00010ECC4F005500610D8B461EF91F063EF54
:1022C00091F07EEF91F049C0D9FF4AC0DAFFDECF2E
:1022D00005F0DDCF06F0FA0E076EFE0E086E000E5A
:1022E0000A6E020E096E10ECC4F005500610D8A458
:1022F0007CEF91F07EEF91F0C2EF91F049C0D9FFF1
:102300004AC0DAFFDECF60F0DDCF61F0010E0001E0
:102310006027000E612360C0F6FF61C0F7FF000E6A
:10232000F86E0800F5CF7EF0020E49C0D9FF4AC012
:10233000DAFFDE26000EDD224BC0D9FF4CC0DAFFEB
:10234000DFCF60F0040EDE26DFCF61F0000EDD226D
:1023500060C0D9FF61C0DAFFDECF62F0DECF63F08C
:10236000DECF64F0DECF65F062517F6F6351806F26
:102370006451816F6551826F836B846B856B866B53
:102380002AEF91F049C0D9FF4AC0DAFFDECFF6FF4D
:10239000DDCFF7FF000EF86E0800F550250AD8A42F
:1023A000D4EF91F0D6EF91F0EDEF91F049C0D9FF65
:1023B0004AC0DAFFDE2A000EDD22000E066E250E70
:1023C000056E47C007F048C008F017ECC8F0000ED3
:1023D000486E010E476E17EF92F049C0D9FF4AC010
:1023E000DAFFDE2A000EDD22000E486E000E476E78
:1023F00017EF92F049C0D9FF4AC0DAFFDECFF6FFEF
:10240000DDCFF7FF000EF86E0800F550056E066A86
:1024100047C007F048C008F017ECC8F049C0D9FF22
:102420004AC0DAFFDE2A000EDD22E7EF91F012004B
:102430006A0E056E000E066E000E086E1C0E076E0C
:10244000A5ECD0F005C060F006C061F01C0E0001E4
:1024500060196111D8A42FEF92F031EF92F0BEEF26
:1024600095F0000E626F980E686F070E696F6A51E3
:10247000206E1F6A6AC021F06BC022F022C021F0DA
:10248000226AFF0E2116000E22161F502112205024
:10249000221221042210D8B450EF92F052EF92F0A1
:1024A00056EF92F0BEEF95F0BEEF95F06C51206EB6
:1024B0001F6A20EE6CF0DECF21F0DDCF22F022C0CB
:1024C00021F0226AFF0E2116000E22161F50211243
:1024D00020502212080E22182110D8B472EF92F068
:1024E00074EF92F076EF92F0BEEF95F0060E6E1953
:1024F000D8B47DEF92F07FEF92F081EF92F0BEEFD3
:1025000095F0040E6F19D8B488EF92F08AEF92F02C
:102510008CEF92F0BEEF95F0080E666F20EE06F09D
:102520006851D9266951DA22FF0E7815236E000E04
:102530007915246E000E7A15256E000E7B15266E19
:1025400023C026F0256A246A236A10EE78F0000E74
:10255000E614276EFF0EE614286E000EE614296EB0
:10256000000EE6142A6E29C02AF028C029F027C0E0
:1025700028F0276A78C02BF079C02CF07AC02DF0B3
:102580007BC02EF02CC02BF02DC02CF02EC02DF0D7
:102590002E6A000E2B142F6EFF0E2C14306E000EC0
:1025A0002D14316E000E2E14326E78C033F079C0C7
:1025B00034F07AC035F07BC036F0190EE5EF92F0BA
:1025C000D8903632353234323332E82EE0EF92F0A2
:1025D000FF0E3314376E000E3414386E000E3514AF
:1025E000396E000E36143A6E2F5037103B6E305055
:1025F00038103C6E315039103D6E32503A103E6EFC
:1026000027503B103F6E28503C10406E29503D1023
:10261000416E2A503E10426E23503F10436E2450AC
:102620004010446E25504110456E26504210466EB3
:10263000DE5043180DE1DE5044180AE1DE50451823
:1026400007E1DE504618D8A428EF93F02AEF93F064
:1026500053EF93F020EE0AF06851D9266951DA223F
:10266000DE506C1907E1DE506D19D8A43AEF93F0F3
:102670003CEF93F053EF93F020EE0CF06851D92625
:102680006951DA22000EDF6E20EE72F068C0E1FFC1
:1026900069C0E2FF050EDBCFE3FFE806FCE2010EB6
:1026A000626F60EF93F00D0E6827000E69236607D6
:1026B0006651D8A45EEF93F060EF93F08EEF92F046
:1026C00003010051011102110311D8B46AEF93F014
:1026D0006CEF93F0BEEF95F0FF0E000182151F6EB8
:1026E000000E8315206E000E8415216E000E8515D8
:1026F000226E1FC022F0216A206A1F6A20EE82F03B
:10270000000EDE14236EFF0EDE14246E000EDE14A7
:10271000256E000EDE14266E25C026F024C025F09E
:1027200023C024F0236A82C027F083C028F084C02D
:1027300029F085C02AF028C027F029C028F02AC037
:1027400029F02A6A000E27142B6EFF0E28142C6E17
:10275000000E29142D6E000E2A142E6E82C02FF04A
:1027600083C030F084C031F085C032F0190EBEEF66
:1027700093F0D8903232313230322F32E82EB9EF26
:1027800093F0FF0E2F14336E000E3014346E000ED3
:102790003114356E000E3214366E2B503310376EF6
:1027A0002C503410386E2D503510396E2E50361096
:1027B0003A6E235037103B6E245038103C6E255033
:1027C00039103D6E26503A103E6E1F503B103F6E42
:1027D00020503C10406E21503D10416E22503E1062
:1027E000426E030100513F180DE1015140180AE10A
:1027F0000251411807E103514218D8A402EF94F0A6
:1028000004EF94F0BEEF95F000016251D8A40BEFF5
:1028100094F00DEF94F0ECEF94F0980E686F070EC3
:10282000696F980E646F070E656F080E676F20EE74
:102830000CF06451D9266551DA2210EE0CF0685183
:10284000E1266951E222DE50E65CD8B02AEF94F02E
:102850002CEF94F030EF94F064C068F065C069F03C
:102860000D0E6427000E652367076751D8A43BEF60
:1028700094F03DEF94F017EF94F020EE0CF06851D7
:10288000D9266951DA22000EDF6E20EE72F068C0A0
:10289000E1FF69C0E2FF050EDBCFE3FFE806FCE2E3
:1028A000FF0E78151F6E000E7915206E000E7A153A
:1028B000216E000E7B15226E1FC022F0216A206A55
:1028C0001F6A20EE78F0000EDE14236EFF0EDE1479
:1028D000246E000EDE14256E000EDE14266E25C05A
:1028E00026F024C025F023C024F0236A78C027F006
:1028F00079C028F07AC029F07BC02AF028C027F0E0
:1029000029C028F02AC029F02A6A000E27142B6E4D
:10291000FF0E28142C6E000E29142D6E000E2A14A2
:102920002E6E78C02FF079C030F07AC031F07BC0C5
:1029300032F0190EA1EF94F0D890323231323032A9
:102940002F32E82E9CEF94F0FF0E2F14336E000E02
:102950003014346E000E3114356E000E3214366EA3
:102960002B503310376E2C503410386E2D503510DC
:10297000396E2E5036103A6E235037103B6E24506D
:1029800038103C6E255039103D6E26503A103E6E80
:102990001F503B103F6E20503C10406E21503D10A8
:1029A000416E22503E10426E20EE06F06851D9264C
:1029B0006951DA223FC0DEFF40C0DEFF41C0DEFFCA
:1029C00042C0DEFF20EE0AF06851D9266951DA22B2
:1029D0006CC0DEFF6DC0DDFF71057011D8A4F3EF90
:1029E00094F0F5EF94F0BEEF95F0720E176E000EB6
:1029F000186E080E1A6E060E196E3BECAEF0000152
:102A0000636F6305D8A407EF95F009EF95F054EFD5
:102A100092F020EE72F010EE7CF0050EDBCFE3FFBB
:102A2000E806FCE2720E056E000E066EB90E076E29
:102A3000030E086E000E0A6E060E096E70ECD4F0DE
:102A400078C082F079C083F07AC084F07BC085F0D2
:102A5000FF0E030100151F6E000E0115206E000E03
:102A60000215216E000E0315226E1FC022F0216A8E
:102A7000206A1F6A000E0015236EFF0E0115246EDA
:102A8000000E0215256E000E0315266E25C026F0D9
:102A900024C025F023C024F0236A00C327F001C31B
:102AA00028F002C329F003C32AF028C027F029C068
:102AB00028F02AC029F02A6A000E27142B6EFF0E78
:102AC00028142C6E000E29142D6E000E2A142E6E62
:102AD00000C32FF001C330F002C331F003C332F062
:102AE000190E78EF95F0D8903232313230322F32E1
:102AF000E82E73EF95F0FF0E2F14336E000E301496
:102B0000346E000E3114356E000E3214366E2B50BA
:102B10003310376E2C503410386E2D503510396EFE
:102B20002E5036103A6E235037103B6E245038101A
:102B30003C6E255039103D6E26503A103E6E1F50A7
:102B40003B100001786F20503C10796F21503D10F0
:102B50007A6F22503E107B6F020E716F000E706F05
:102B60006A0E056E000E066E000E086E1C0E076ED5
:102B7000DAECD0F0DFECC6F0BEEF95F01200000EFC
:102B80000001AD6FE8EF95F0010EB56F000EB26F6A
:102B9000000EB66F000EB76F07EF96F0000EB56F20
:102BA000010EB26F010EB66F010EB76F07EF96F010
:102BB000000EB56F010EB66F010EB76F07EF96F0FE
:102BC000000EB56F000EB66F000EB76F07EF96F0F0
:102BD0000201D3510001906F916B9151000AD8B45A
:102BE000F4EF95F0C4EF95F09051000AD8B4C4EF1B
:102BF00095F0010AD8B4CEEF95F0030AD8B4D8EF17
:102C000095F0010AD8B4E0EF95F0C4EF95F0B55116
:102C1000D8A40DEF96F00FEF96F027EF96F0B25193
:102C2000D8A415EF96F017EF96F027EF96F0B6516F
:102C3000D8A41DEF96F01FEF96F027EF96F0B7514E
:102C4000D8B425EF96F027EF96F05EEF99F025EED9
:102C500089F010EEBDF02F0EDBCFE3FFE806FCE2BB
:102C6000DFC3DDF0E0C3DEF0E1C3DFF0E2C3E0F09C
:102C70008FBF44EF96F08F5109E1F10E8E5DD8A021
:102C800044EF96F046EF96F044EF99F098ECD4F0CC
:102C9000050407E1020E0618D8A451EF96F053EF91
:102CA00096F08DEF98F004ECD7F0060AD8A45BEF0D
:102CB00096F05DEF96F08DEF98F004ECD7F00CEC09
:102CC000D2F00301DF5105180DE1E05106180AE1C9
:102CD000E151071807E1E2510818D8A472EF96F005
:102CE00074EF96F08DEF98F098ECD4F098ECD4F067
:102CF0000CECD2F00CECD2F005C0BDF006C0BEF07A
:102D000007C0BFF008C0C0F00001BD290CE1BE291A
:102D10000AE1BF2908E1C029D8B491EF96F093EFFA
:102D200096F08DEF98F0BD050BE17F0EC019BE1136
:102D3000BF11D8B49EEF96F0A0EF96F08DEF98F00B
:102D40000CECD2F005C0AEF006C0AFF007C0B0F09A
:102D500008C0B1F00001AE290CE1AF290AE1B029A9
:102D600008E1B129D8B4B7EF96F0B9EF96F08DEF3E
:102D700098F0AE050BE17F0EB119AF11B011D8B4C8
:102D8000C4EF96F0C6EF96F08DEF98F00CECD2F011
:102D9000940E056E000E066E000E086E100E076E85
:102DA000A5ECD0F0940E056E000E066EB90E076EFF
:102DB000030E086E000E0A6E060E096EB0ECC7F028
:102DC00005500610D8B4E7EF96F0E9EF96F00FEF54
:102DD00097F0940E056E000E066E2F0E076EFD0E18
:102DE000086E000E0A6E060E096EB0ECC7F00550B4
:102DF0000610D8B4FEEF96F000EF97F00FEF97F0C3
:102E0000940E056E000E066E48ECD4F005500610C8
:102E1000D8A40DEF97F00FEF97F05EEF99F0000E4A
:102E2000066E400E056E20ECD4F0000E066E800E8D
:102E3000056E20ECD4F00CECD2F0630E05180DE119
:102E4000530E06180AE1820E071807E1630E0818F0
:102E5000D8A42DEF97F02FEF97F08DEF98F00001A9
:102E6000100E8E27FF0E8F237DEF98F004ECD7F025
:102E70000001AC6F04ECD7F00001BC6FBC51906F47
:102E8000916B020E9027000E912390518E5F91510D
:102E90008F5B54EF98F00CECD2F005C0C1F006C087
:102EA000C2F007C0C3F008C0C4F07DEF98F00CEC8E
:102EB000D2F005C0C5F006C0C6F007C0C7F008C014
:102EC000C8F07DEF98F0000EB36F91EF97F00CEC27
:102ED000D2F005C0A4F006C0A5F007C0A6F008C057
:102EE000A7F0020E0001B36178EF97F07AEF97F048
:102EF0008FEF97F0B351040D0C0EF326000EF42261
:102F0000BD0EF324D96E000EF420DA6EA4C0DEFFED
:102F1000A5C0DEFFA6C0DEFFA7C0DEFFB32B040EF8
:102F2000BC5F040EBC6197EF97F099EF97F067EFE5
:102F300097F07DEF98F0000EB46FC9EF97F00CECAE
:102F4000D2F005C0A8F006C0A9F007C0AAF008C0DA
:102F5000ABF0020E0001B461B0EF97F0B2EF97F062
:102F6000C7EF97F0B451040D140EF326000EF422AF
:102F7000BD0EF324D96E000EF420DA6EA8C0DEFF79
:102F8000A9C0DEFFAAC0DEFFABC0DEFFB42B040E7B
:102F9000BC5F040EBC61CFEF97F0D1EF97F09FEFCD
:102FA00097F07DEF98F0030EBC65D9EF97F0DBEF5B
:102FB00097F07DEF98F00CECD2F005C0B8F006C0A9
:102FC000B9F007C0BAF008C0BBF0B8C090F0B9C003
:102FD00091F0BAC092F0BBC093F00001D890933347
:102FE00092339133903390C0E1F091C0E2F092C0FF
:102FF000E3F093C0E4F0E1C0E5F0E2C0E6F0E3C046
:10300000E7F0E4C0E8F0E1C090F0E2C091F0E3C086
:1030100092F0E4C093F0D89093339233913390338D
:1030200090C0B8F091C0B9F092C0BAF093C0BBF0B4
:10303000B851E527B951E623BA51E723BB51E8233C
:10304000B8C090F0B9C091F0BAC092F0BBC093F094
:10305000D89093339233913390339051E527915127
:10306000E6239251E7239351E823040E0001BC5F4D
:103070007DEF98F00CECD2F005C0E9F006C0EAF064
:1030800007C0EBF008C0ECF035EF98F004ECD7F097
:103090000001AD6FBC077DEF98F0BCC005F0066A7B
:1030A00020ECD4F07DEF98F0AC51906F916B915182
:1030B000000AD8B45EEF98F04DEF98F09051010AF5
:1030C000D8B44BEF97F0020AD8B457EF97F0050A3F
:1030D000D8B463EF97F02C0AD8B49BEF97F0190A95
:1030E000D8B4D3EF97F0060AD8B446EF98F0030AA5
:1030F000D8B43AEF98F04DEF98F000018FBF8BEF06
:1031000098F08F5106E18E05D8B089EF98F08BEFDB
:1031100098F036EF97F044EF99F044EF99F0B551FD
:10312000D8B495EF98F097EF98F0A5EF98F020EECF
:10313000BDF013EEBFF02F0EDBCFE3FFE806FCE29D
:103140005BECD9F0010E0201D36F0001B251D8B48B
:10315000ACEF98F0AEEF98F05EEF99F057ECD9F045
:103160005EEF99F0B751D8B4B8EF98F0BAEF98F095
:103170005EEF99F0E1C0E3F3E2C0E4F3E3C0E5F30E
:10318000E4C0E6F3E5C0E7F3E6C0E8F3E7C0E9F33F
:10319000E8C0EAF3BFC300F3C0C301F3C1C302F345
:1031A000C2C303F3CBC304F3CCC305F3CDC306F30F
:1031B000CEC307F3CFC308F3D0C309F3D1C30AF3D7
:1031C000D2C30BF3C7C310F3C8C311F3C9C312F3BF
:1031D000CAC313F3DBC314F3DCC315F3DDC316F367
:1031E000DEC317F3C3C30CF3C4C30DF3C5C30EF39F
:1031F000C6C30FF30301D351D411D511D611D8B4DE
:1032000004EF99F006EF99F021EF99F0D3C318F38A
:10321000D4C319F3D5C31AF3D6C31BF3D751D811AE
:10322000D911DA11D8B417EF99F019EF99F021EF0D
:1032300099F0D7C31CF3D8C31DF3D9C31EF3DAC367
:103240001FF3030E0201D36F5EEF99F0B651D8B4AD
:103250002CEF99F02EEF99F05EEF99F0040E030138
:10326000E36F000EE46F000EE56F000EE66F020ED6
:10327000E76F000EE86F000EE96F000EEA6F000EB8
:103280000201D36F5EEF99F00001AD51906F916B29
:103290009151000AD8B44FEF99F05EEF99F0905138
:1032A000020AD8B48FEF98F0070AD8B4B2EF98F0BA
:1032B000030AD8B426EF99F05EEF99F012007DC0B2
:1032C000D9FF7EC0DAFFDECF7FF0DDCF80F00001D6
:1032D0007F51826F816B7DC0D9FF7EC0DAFFDECF68
:1032E00083F0DDCF84F084C083F0846BFF0E8317FE
:1032F000000E841781518311AA6F82518411AB6F24
:1033000020EE06F07D51D9267E51DA22DECF7FF005
:10331000DDCF80F07F51826F816B20EE06F07D5112
:10332000D9267E51DA22DECF83F0DDCF84F084C04F
:1033300083F0846BFF0E8317000E84178151831175
:10334000AC6F82518411AD6F20EE10F07D51D92603
:103350007E51DA22DECF7FF0DECF80F0DECF81F04B
:10336000DECF82F0FF0E7F15836F000E8015846F15
:10337000000E8115856F000E8215866F83C086F062
:10338000856B846B836B20EE10F07D51D9267E51C6
:10339000DA22000EDE14876FFF0EDE14886F000E37
:1033A000DE14896F000EDE148A6F89C08AF088C02F
:1033B00089F087C088F0876B20EE10F07D51D92608
:1033C0007E51DA22DECF8BF0DECF8CF0DECF8DF0B7
:1033D000DECF8EF08CC08BF08DC08CF08EC08DF067
:1033E0008E6B000E8B158F6FFF0E8C15906F000E7D
:1033F0008D15916F000E8E15926F20EE10F07D519D
:10340000D9267E51DA22DECF93F0DECF94F0DECFE4
:1034100095F0DECF96F0190E13EF9AF0D890963310
:10342000953394339333E82E0EEF9AF0FF0E9315F5
:10343000976F000E9415986F000E9515996F000EFA
:1034400096159A6F8F5197119B6F905198119C6FA1
:10345000915199119D6F92519A119E6F87519B11B5
:103460009F6F88519C11A06F89519D11A16F8A5146
:103470009E11A26F83519F11AE6F8451A011AF6F47
:103480008551A111B06F8651A211B16F20EE0CF0E1
:103490007D51D9267E51DA22DECF7FF0DECF80F05B
:1034A000DECF81F0DECF82F0FF0E7F15836F000E3E
:1034B0008015846F000E8115856F000E8215866F52
:1034C00083C086F0856B846B836B20EE0CF07D519E
:1034D000D9267E51DA22000EDE14876FFF0EDE142D
:1034E000886F000EDE14896F000EDE148A6F89C0AB
:1034F0008AF088C089F087C088F0876B20EE0CF0D6
:103500007D51D9267E51DA22DECF8BF0DECF8CF0D2
:10351000DECF8DF0DECF8EF08CC08BF08DC08CF0C6
:103520008EC08DF08E6B000E8B158F6FFF0E8C157D
:10353000906F000E8D15916F000E8E15926F20EE1C
:103540000CF07D51D9267E51DA22DECF93F0DECF0A
:1035500094F0DECF95F0DECF96F0190EB5EF9AF02D
:10356000D8909633953394339333E82EB0EF9AF096
:10357000FF0E9315976F000E9415986F000E95151A
:10358000996F000E96159A6F8F5197119B6F9051FE
:1035900098119C6F915199119D6F92519A119E6F44
:1035A00087519B119F6F88519C11A06F89519D116C
:1035B000A16F8A519E11A26F83519F11B26F8451E6
:1035C000A011B36F8551A111B46F8651A211B56FCF
:1035D000B691F10EB617B6510F0B5009B66F20EE2B
:1035E0001AF07D51D9267E51DA22DECF7FF0DDCF71
:1035F00080F07F51826F816B20EE1AF07D51D926C9
:103600007E51DA22DECF83F0DDCF84F084C083F0F8
:10361000846BFF0E8317000E841781518311B86FDE
:1036200082518411B96F000EBB6F000EBA6F000E8D
:10363000BD6F000EBC6F20EE38F07D51D9267E5153
:10364000DA22DF507F6F060E7F17D8B42AEF9BF087
:103650002CEF9BF033EF9BF0000E0201CC6F000EBD
:10366000CB6F0FEF9CF020EE2CF07D51D9267E51D0
:10367000DA22DE04D8A43FEF9BF041EF9BF043EF4A
:103680009BF02CEF9BF020EE2AF07D51D9267E5145
:10369000DA22DECFCBF2DDCFCCF20201CB51CC115E
:1036A000D8B455EF9BF057EF9BF00FEF9CF0000163
:1036B00020EE18F07D51D9267E51DA22DE50DE1040
:1036C000D8A465EF9BF067EF9BF071EF9BF020EEC5
:1036D00018F07D51D9267E51DA22010EDE6E000EE1
:1036E000DD6E20EE18F07D51D9267E51DA220201DE
:1036F000CB51DE5CCC51DE58D8B081EF9BF083EF2C
:103700009BF08EEF9BF0000120EE18F07D51D92642
:103710007E51DA22DECFCBF2DDCFCCF2000120EEFB
:103720001CF07D51D9267E51DA220201CB51DE5C9C
:10373000CC51DE58D8B09FEF9BF0A1EF9BF0ACEFDF
:103740009BF0000120EE1CF07D51D9267E51DA223B
:10375000DECFCBF2DDCFCCF2000120EE25F07D51A3
:10376000D9267E51DA22DECFA3F0DDCFA4F020EE01
:1037700025F07D51D9267E51DA22DECF7FF0DDCFD4
:1037800080F00201CB5100017F270201CC510001E2
:10379000802320EE25F07D51D9267E51DA227FC08C
:1037A000DEFF80C0DDFF20EE2AF07D51D9267E515C
:1037B000DA22DECF7FF0DDCF80F00201CB510001B5
:1037C0007F5F0201CC510001805B20EE27F07D512C
:1037D000D9267E51DA227FC0DEFF80C0DDFF20EED9
:1037E00027F07D51D9267E51DA22DE50DE10D8A492
:1037F000FCEF9BF0FEEF9BF00FEF9CF020EE38F01B
:103800007D51D9267E51DA2210EE38F07D51E12625
:103810007E51E222E7500809DF6E0FEF9CF00001B5
:1038200020EE38F07D51D9267E51DA22DF50B76F75
:10383000140E0201CB250001A76F000E0201CC215E
:103840000001A86F20EE02F07D51D9267E51DA22C8
:10385000DECF43F0DECF44F0DECF45F0DECF46F0E2
:10386000060E476EFFECACF00001A96FA905D8A4C5
:103870003CEF9CF03EEF9CF08DEF9CF0AA0E056EA5
:10388000000E066E000E086E140E076EDAECD0F015
:103890000201CB51CC11D8B450EF9CF052EF9CF008
:1038A0005CEF9CF0A3C005F0A4C006F0CBC207F00B
:1038B000CCC208F0DAECD0F0060E0001A725A56F07
:1038C000000EA821A66F000E186E1A0E176E080EB5
:1038D000A725196E000EA8211A6EA5C01BF0A6C060
:1038E0001CF0DAECCDF017C0A5F018C0A6F0A50EBC
:1038F000056E000E066E000E086E020E076E000EBC
:103900000A6E320E096E6FECD0F0A7C025F0A8C089
:1039100026F096ECCBF00001A96FA905D8B493EF7F
:103920009CF095EF9CF0C9EF9CF0120EA919D8B449
:103930009CEF9CF09EEF9CF0C9EF9CF020EE37F0DE
:103940007D51D9267E51DA2210EE37F07D51E126E5
:103950007E51E222E7507F6F7F05DF6E20EE33F06D
:103960007D51D9267E51DA22DE50DE10D8A4BBEF7D
:103970009CF0BDEF9CF0F5EF9CF020EE33F07D5114
:10398000D9267E51DA22020EDE6E000EDD6EF5EFD4
:103990009CF020EE10F07D51D9267E51DA22DECF48
:1039A0007FF0DECF80F0DECF81F0DECF82F002014B
:1039B000CB5100017F25836F0201CC510001802192
:1039C000846F000E8121856F000E8221866F20EEAC
:1039D00010F07D51D9267E51DA2283C0DEFF84C0EB
:1039E000DEFF85C0DEFF86C0DEFFA9511200000E9B
:1039F00002014A6F000E496F5FECD5F00201486F7B
:103A000048C217F0186A000E1A6E000E196EF3EC19
:103A1000C9F017C04BF218C04CF202014B514C11C7
:103A2000D8B415EF9DF017EF9DF019EF9DF066EFFC
:103A3000A0F08F0E056E030E066E000E086E140EBB
:103A4000076EA5ECD0F003018F390F0B040AD8B430
:103A50002CEF9DF02EEF9DF030EF9DF066EFA0F083
:103A6000FF0E9F150201006F000E0301A015020159
:103A7000016F000E0301A1150201026F000E030188
:103A8000A2150201036F00C203F2026B016B006B0F
:103A900023EE9FF0000EDE14046FFF0EDE14056FA0
:103AA000000EDE14066F000EDE14076F06C207F26A
:103AB00005C206F204C205F2046B9FC308F2A0C35C
:103AC00009F2A1C30AF2A2C30BF209C208F20AC2A8
:103AD00009F20BC20AF20B6B000E08150C6FFF0EF9
:103AE00009150D6F000E0A150E6F000E0B150F6FE6
:103AF0009FC310F2A0C311F2A1C312F2A2C313F22A
:103B0000190E88EF9DF0D890133312331133103310
:103B1000E82E83EF9DF0FF0E1015146F000E1115A7
:103B2000156F000E1215166F000E1315176F0C513E
:103B30001411186F0D511511196F0E5116111A6FBE
:103B40000F5117111B6F045118111C6F05511911DA
:103B50001D6F06511A111E6F07511B111F6F005167
:103B60001C1103019F6F020101511D110301A06F80
:103B7000020102511E110301A16F020103511F1125
:103B80000301A26FFF0E9B150201006F000E0301DF
:103B90009C150201016F000E03019D150201026FC9
:103BA000000E03019E150201036F00C203F2026BB7
:103BB000016B006B23EE9BF0000EDE14046FFF0E12
:103BC000DE14056F000EDE14066F000EDE14076FA4
:103BD00006C207F205C206F204C205F2046B9BC3DB
:103BE00008F29CC309F29DC30AF29EC30BF209C2FC
:103BF00008F20AC209F20BC20AF20B6B000E08159A
:103C00000C6FFF0E09150D6F000E0A150E6F000EDA
:103C10000B150F6F9BC310F29CC311F29DC312F2E0
:103C20009EC313F2190E1AEF9EF0D890133312337D
:103C300011331033E82E15EF9EF0FF0E1015146FA0
:103C4000000E1115156F000E1215166F000E1315CC
:103C5000176F0C511411186F0D511511196F0E516A
:103C600016111A6F0F5117111B6F045118111C6F89
:103C7000055119111D6F06511A111E6F07511B11A5
:103C80001F6F00511C1103019B6F020101511D1197
:103C900003019C6F020102511E1103019D6F02017D
:103CA00003511F1103019E6F9B290AE19C2908E122
:103CB0009D2906E19E29D8A460EF9EF062EF9EF058
:103CC00064EF9EF066EFA0F000519F190FE10151E3
:103CD000A0190CE10251A11909E10351A219D8B4AC
:103CE00074EF9EF076EF9EF023EF9FF09F51A011AE
:103CF000A111A211D8B47FEF9EF081EF9EF023EFC7
:103D00009FF09F290CE1A0290AE1A12908E1A2293D
:103D1000D8B48DEF9EF08FEF9EF023EF9FF0FF0E53
:103D200000110201006FFF0E030101110201016F7A
:103D3000FF0E030102110201026F000E03010311C5
:103D40000201036F03019F510201001915E10301F4
:103D5000A0510201011910E10301A1510201021950
:103D60000BE10301A25102010319D8B4BAEF9EF08E
:103D7000BCEF9EF023EF9FF0FF0E03010011020144
:103D8000006FFF0E030101110201016F000E03011C
:103D900002110201026F000E030103110201036F01
:103DA00003019F510201001915E10301A051020115
:103DB000011910E10301A151020102190BE10301F4
:103DC000A25102010319D8B4E8EF9EF0EAEF9EF089
:103DD00023EF9FF0FF0E030100110201006F0301AA
:103DE00001510201016F030102510201026F03013F
:103DF00003510201036F03019F510201001915E1F4
:103E00000301A0510201011910E10301A1510201B6
:103E100002190BE10301A25102010319D8B413EFF7
:103E20009FF015EF9FF023EF9FF003019F0509E13D
:103E3000E00EA219A011A111D8A421EF9FF023EF49
:103E40009FF066EFA0F0030191510201016F006B3A
:103E500023EE91F0DECF02F2DDCF03F203C202F2D5
:103E6000036BFF0E0217000E03170051021103012E
:103E7000916F0201015103110301926F8F510F0BDA
:103E80000201006FD8900037D8900035486F0301C9
:103E90008F510F0B0201006F050E006152EF9FF072
:103EA00054EF9FF056EF9FF066EFA0F003018F51A3
:103EB0000F0B0201006F050E006561EF9FF063EFCD
:103EC0009FF04BEFA0F0EC0E4825056E066AFF0E42
:103ED000062220ECD4F04BEFA0F003019F51A0117B
:103EE000A111A211D8A477EF9FF079EF9FF07BEF9B
:103EF0009FF066EFA0F0020148510301915D0201BD
:103F0000496F03019251D8A0920502014A6F49C23C
:103F100017F04AC218F0000E1A6E000E196EF3EC7C
:103F2000C9F017C04BF218C04CF202014B514C11B2
:103F3000D8A49DEF9FF09FEF9FF0A8EF9FF08F0E0A
:103F400000018E6F030E8F6F89ECC2F066EFA0F058
:103F5000200E00018D6F020E8E6F100E8F6FFE0E01
:103F6000906F4BC291F04CC292F07DECD3F066EFB3
:103F7000A0F048510301915D0201496F0301925184
:103F8000D8A0920502014A6F49C205F04AC206F064
:103F90007BECC5F005C04BF206C04CF249C217F0ED
:103FA0004AC218F04BC219F04CC21AF0F3ECC9F037
:103FB00017C04BF218C04CF24BC2EDF04CC2EEF001
:103FC00096ECB4F066EFA0F048510301915D020158
:103FD000496F03019251D8A0920502014A6F49C26C
:103FE00005F04AC206F07BECC5F005C04BF206C0F6
:103FF0004CF249C217F04AC218F04BC219F04CC239
:104000001AF0F3ECC9F017C04BF218C04CF20201E1
:104010004B514C11D8A40FEFA0F011EFA0F066EFB8
:10402000A0F003019F290CE1A0290AE1A12908E1E0
:10403000A229D8B41EEFA0F020EFA0F066EFA0F008
:104040009F51A011A111A211D8B429EFA0F02BEF1C
:10405000A0F066EFA0F09BC33BF39CC33CF39DC371
:104060003DF39EC33EF33BC3E4F03CC3E5F03DC3E8
:10407000E6F03EC3E7F049C2E8F04AC2E9F067EC77
:10408000A0F066EFA0F091C305F092C306F020EC1B
:10409000D4F066EFA0F0030198510201006F016BAC
:1040A0000151000AD8B457EFA0F043EFA0F000513F
:1040B000010AD8B46DEF9FF0070AD8B4E4EF9FF07F
:1040C000170AD8B4B9EF9FF043EFA0F01200000E2A
:1040D0000001EA6F000E0201B76F000EB86F000E0C
:1040E000B96F000EBA6F000ECE6F000ECD6FE30EEB
:1040F000056E020E066E000E086E140E076EA5EC1D
:10410000D0F0000E576E000E586E0201E551E61118
:10411000D8B48DEFA0F08FEFA0F0FEEFA2F0E35146
:10412000E411D8B496EFA0F098EFA0F0FEEFA2F063
:10413000E3510101016F006BE3C202F1E4C203F13C
:1041400003C102F1036BFF0E0217000E03170051AB
:1041500002110201E36F0101015103110201E46F39
:10416000E5510101016F006B22EEE5F0DECF02F1B7
:10417000DDCF03F103C102F1036BFF0E0217000E46
:104180000317005102110201E56F010101510311F2
:104190000201E66FD1C2EBF0D2C2ECF0F3EFA0F077
:1041A000EBC0D9FFECC0DAFFDE500201E51907E1F0
:1041B000DE50E619D8A4DFEFA0F0E1EFA0F0E7EFC2
:1041C000A0F0EBC057F0ECC058F00BEFA1F00001ED
:1041D00020EE2FF0EB51D926EC51DA22DECFEBF0B6
:1041E000DDCFECF0EA2B0001EB51EC11D8B4FBEF82
:1041F000A0F0FDEFA0F00BEFA1F0EA51800A010161
:10420000006FFF51800A005DD8A009EFA1F00BEF0D
:10421000A1F0D0EFA0F057505810D8B412EFA1F091
:1042200014EFA1F0FEEFA2F020EE06F05750D926D1
:104230005850DA220201E351DE1809E1E451DE1898
:10424000D8B425EFA1F027EFA1F038EFA1F020EED0
:1042500002F05750D9265850DA22DE50DE10DE1018
:10426000DE10D8A436EFA1F038EFA1F0FEEFA2F0F7
:10427000E4C0B7F2E5C0B8F2E6C0B9F2E7C0BAF2FE
:10428000EF390F0B0101006F016BD8900037013738
:10429000D8900037013700510001E85D0201CD6F71
:1042A000010101510001E9590201CE6F73ECB6F032
:1042B000E806D8A45EEFA1F060EFA1F0FEEFA2F057
:1042C0000201F0A366EFA1F068EFA1F083EFA1F087
:1042D000F0A96DEFA1F06FEFA1F079EFA1F020EE62
:1042E0002EF05750D9265850DA22050EDF6ED6EF41
:1042F000A1F020EE2EF05750D9265850DA22030EA6
:10430000DF6ED6EFA1F0F0A188EFA1F08AEFA1F067
:10431000A5EFA1F0F0A98FEFA1F091EFA1F09BEF35
:10432000A1F020EE2EF05750D9265850DA22070E71
:10433000DF6ED6EFA1F020EE2EF05750D926585060
:10434000DA22060EDF6ED6EFA1F0F0A5AAEFA1F0FB
:10435000ACEFA1F0C7EFA1F0F0A9B1EFA1F0B3EF7E
:10436000A1F0BDEFA1F020EE2EF05750D926585005
:10437000DA220A0EDF6ED6EFA1F020EE2EF05750B3
:10438000D9265850DA22090EDF6ED6EFA1F0F0A937
:10439000CCEFA1F0CEEFA1F0D6EFA1F020EE2EF001
:1043A0005750D9265850DA22040EDF6EFF0EEB1557
:1043B0000101006F000E0201EC150101016F000EFA
:1043C0000201ED150101026F000E0201EE1501015F
:1043D000036F00C103F1026B016B006B22EEEBF087
:1043E000000EDE14046FFF0EDE14056F000EDE14E7
:1043F000066F000EDE14076F06C107F105C106F156
:1044000004C105F1046BEBC208F1ECC209F1EDC285
:104410000AF1EEC20BF109C108F10AC109F10BC1A1
:104420000AF10B6B000E08150C6FFF0E09150D6FCE
:10443000000E0A150E6F000E0B150F6FEBC210F178
:10444000ECC211F1EDC212F1EEC213F1190E2EEF12
:10445000A2F0D8901333123311331033E82E29EF22
:10446000A2F0FF0E1015146F000E1115156F000E3F
:104470001215166F000E1315176F0C511411186FCB
:104480000D511511196F0E5116111A6F0F51171189
:104490001B6F045118111C6F055119111D6F065126
:1044A0001A111E6F07511B111F6F00511C110201C1
:1044B000EB6F010101511D110201EC6F010102516D
:1044C0001E110201ED6F010103511F110201EE6F78
:1044D000FF0EE7150101006F000E0201E815010152
:1044E000016F000E0201E9150101026F000E0201C9
:1044F000EA150101036F00C103F1026B016B006B50
:1045000022EEE7F0000EDE14046FFF0EDE14056FDE
:10451000000EDE14066F000EDE14076F06C107F1F1
:1045200005C106F104C105F1046BE7C208F1E8C258
:1045300009F1E9C20AF1EAC20BF109C108F10AC1A5
:1045400009F10BC10AF10B6B000E08150C6FFF0E81
:1045500009150D6F000E0A150E6F000E0B150F6F6B
:10456000E7C210F1E8C211F1E9C212F1EAC213F197
:10457000190EC0EFA2F0D890133312331133103359
:10458000E82EBBEFA2F0FF0E1015146F000E1115F0
:10459000156F000E1215166F000E1315176F0C51C4
:1045A0001411186F0D511511196F0E5116111A6F44
:1045B0000F5117111B6F045118111C6F0551191160
:1045C0001D6F06511A111E6F07511B111F6F0051ED
:1045D0001C110201E76F010101511D110201E86F79
:1045E000010102511E110201E96F010103511F1166
:1045F0000201EA6F00EC80F0FEEFA2F01200000E64
:104600000001B66F000EB76F070EB86F8FBF12EFC5
:10461000A3F08F5109E10D0E8E5DD8A012EFA3F02B
:1046200014EFA3F0A5EFA4F098ECD4F005C0A9F026
:1046300006C0AAF003017F510001A91909E1030195
:1046400080510001AA19D8A428EFA3F02AEFA3F003
:10465000EDEFA3F00CECD2F098ECD4F005C0AEF086
:1046600006C0AFF098ECD4F098ECD4F00001F40E52
:104670008E27FF0E8F238FBF46EFA3F08F5108E1E7
:104680008E05D8A046EFA3F048EFA3F0EDEFA3F01E
:1046900067EFA3F0000EB625D96EDA6A010EDA22B2
:1046A00004ECD7F0DF6E0001B62BAD07AD29D8A41E
:1046B0005CEFA3F05EEFA3F04AEFA3F0000EB62587
:1046C000D96EDA6A010EDA222E0EDF6EB62B04ECFA
:1046D000D7F00001AD6FAD51D8A471EFA3F073EF27
:1046E000A3F055EFA3F0FF0E906FFF0E916FB65140
:1046F000926F936B9051922791519323000E9225C4
:10470000D96E010E9321DA6E000EDF6E0CECD2F042
:104710000001B651906F916B050E9027000E91230A
:1047200090518E5F91518F5BE4EFA3F098ECD4F041
:1047300098ECD4F005C0ABF006C0ACF098ECD4F027
:104740000CECD2F005C0A5F006C0A6F007C0A7F09B
:1047500008C0A8F098ECD4F005C0B0F006C0B1F0E5
:104760000001AB05AC11D8A4B8EFA3F0BAEFA3F0E9
:10477000C8EFA3F00CECD2F005C0A1F006C0A2F087
:1047800007C0A3F008C0A4F0E0EFA3F004ECD7F05A
:104790000001B007D8A0B107B02906E1B129D8A41B
:1047A000D4EFA3F0D6EFA3F0C6EFA3F00E0EB02522
:1047B000906F000EB121916F90518E5F91518F5B80
:1047C0000001AE07D8A0AF07AE51AF11D8A4EBEFF0
:1047D000A3F0EDEFA3F096EFA3F0000EB26F070E7B
:1047E000B36F080EB56F20EE0BF0B251D926B3515E
:1047F000DA2210EE0BF0B751E126B851E222DE507A
:10480000E65CDE50E658DE50E658DE50E658DE50F4
:10481000E658DE50E658DE50E658E650800AA06FB3
:10482000DE50800AA059D8B018EFA4F01AEFA4F017
:104830001EEFA4F0B2C0B7F0B3C0B8F0130EB227A9
:10484000000EB323B507B551D8A429EFA4F02BEF80
:10485000A4F0F3EFA3F0000EB46FB7C0D9FFB8C057
:10486000DAFFDECF05F0DDCF06F0000E076E010E99
:10487000086ECDECCFF005500610D8A442EFA4F09E
:1048800044EFA4F097EFA4F0000E056E000E066E44
:10489000C3ECCCF005C090F006C091F007C092F0D8
:1048A00008C093F009C094F00AC095F00BC096F0D0
:1048B0000CC097F0000120EE0BF0B751D926B8518B
:1048C000DA2290C0DEFF91C0DEFF92C0DEFF93C00F
:1048D000DEFF94C0DEFF95C0DEFF96C0DEFF97C00E
:1048E000DEFF20EE02F0B751D926B851DA22A1C07E
:1048F000DEFFA2C0DEFFA3C0DEFFA4C0DEFF20EE0D
:1049000006F0B751D926B851DA22A5C0DEFFA6C0FD
:10491000DEFFA7C0DEFFA8C0DEFF20EE0AF0B75121
:10492000D926B851DA22010EDF6EA5EFA4F0130EDE
:104930000001B727000EB823B42B070EB465A3EF10
:10494000A4F0A5EFA4F02DEFA4F0120022C03AF0DD
:1049500023C03BF024C03CF025C03DF026C03EF013
:1049600027C03FF028C040F029C041F041BEBBEF56
:10497000A4F0BEEFA4F0010EBFEFA4F0000E386E5D
:10498000396A38503910D8B4C8EFA4F0CAEFA4F08F
:10499000DAEFA4F0411E401E3F1E3E1E3D1E3C1E8F
:1049A0003B1E3A6C000E3B223C223D223E223F221F
:1049B000402241220201BEBFE0EFA4F0E2EFA4F0EA
:1049C000E3EFA4F0BF93BEBFF0EFA4F0BE5106E149
:1049D000BD05D8B0EEEFA4F0F0EFA4F0F6EFA4F030
:1049E000000E356E010E346EFAEFA4F0BDC234F045
:1049F000BEC235F0BBC236F0BCC237F038503910F9
:104A0000D8A405EFA5F007EFA5F00EEFA5F0BFA520
:104A10000CEFA5F00EEFA5F011EFA5F03606D8A02B
:104A20003706000E436E1F0E426E000E04019C6F8F
:104A300096EFA5F04206D8A043067D0E4224D96E1B
:104A4000040E4320DA6E3AC005F03BC006F03CC0CD
:104A500007F03DC008F03EC009F03FC00AF040C07A
:104A60000BF041C00CF00A0E0D6E000E0E6E000E23
:104A70000F6E000E106E000E116E000E126E000E04
:104A8000136E000E146EA2ECBCF005C02AF006C036
:104A90002BF007C02CF008C02DF009C02EF00AC082
:104AA0002FF00BC030F00CC031F02AC017F02CC032
:104AB00018F021ECD5F01750300FDF6E3406D8A077
:104AC00035063606D8A037063AC005F03BC006F0DA
:104AD0003CC007F03DC008F03EC009F03FC00AF0FE
:104AE00040C00BF041C00CF00A0E0D6E000E0E6EB1
:104AF000000E0F6E000E106E000E116E000E126E84
:104B0000000E136E000E146EFDECB8F005C03AF006
:104B100006C03BF007C03CF008C03DF009C03EF0C5
:104B20000AC03FF00BC040F00CC041F043BEA1EF03
:104B3000A5F0435008E14204D8A0A1EFA5F0A3EFEF
:104B4000A5F0D4EFA5F03A503B103C103D103E10BC
:104B50003F1040104110D8A4B0EFA5F0B2EFA5F07F
:104B60001AEFA5F035BEBFEFA5F0355006E13404CD
:104B7000D8B0BDEFA5F0BFEFA5F01AEFA5F037BE96
:104B8000CAEFA5F0375008E13604D8A0CAEFA5F067
:104B9000CCEFA5F0D4EFA5F00201BFB3D2EFA5F0A2
:104BA000D4EFA5F01AEFA5F038503910D8A4DBEFF8
:104BB000A5F0DDEFA5F0E5EFA5F00201BFA5E3EF5D
:104BC000A5F0E5EFA5F003EFA6F04206D8A0430656
:104BD00038503910D8A4EFEFA5F0F1EFA5F0F7EFBA
:104BE000A5F0000E336E2B0E326EFBEFA5F0000E1B
:104BF000336E2D0E326E7D0E4224D96E040E43208C
:104C0000DA6E32C0DFFF20C015F021C016F07D0E35
:104C10004224176E040E4320186E36C019F037C0B8
:104C20001AF07CECC8F015C020F016C021F012007C
:104C3000000E0001EE6F170E0C6E050E0D6EB6EC39
:104C4000D6F00001EA6F6FEFA7F0170E0C6E050E9D
:104C50000D6E3BECBFF088EFA7F0170E0C6E050E43
:104C60000D6E000E0F6E070E0E6E36ECD7F0170E9F
:104C70000C6E050E0D6E000E0E6E080E0F6E010E00
:104C8000116E000E106EA0ECCAF0170E0001E46F5A
:104C9000050EE56FE3ECCBF088EFA7F0170E0C6E76
:104CA000050E0D6EBCECD4F00009D8B45AEFA6F096
:104CB0005CEFA6F088EFA7F0170E0C6E050E0D6ED8
:104CC000A1ECCEF00CC0ECF00DC0EDF00001EC5109
:104CD000ED11D8B46EEFA6F070EFA6F088EFA7F054
:104CE000170E0C6E050E0D6E40ECC9F036EFA7F0F6
:104CF000180E08010119D8A480EFA6F082EFA6F0E3
:104D000051EFA7F0180E0901006F180E016F630E26
:104D1000026F050E036F040E0001EE6F51EFA7F056
:104D2000180E08010119D8A498EFA6F09AEFA6F082
:104D3000ACEFA6F0240E0901006F180E016F02C837
:104D4000EBF0000E056E080E066EEBC007F00EECE1
:104D5000D1F0020E0001EE6F3C0E08010119D8A43B
:104D6000B4EFA6F0B6EFA6F0C2EFA6F0240E09014C
:104D7000006F3C0E016F5FECD9F00901026F030E6A
:104D80000001EE6F420E08010119D8A4CAEFA6F087
:104D9000CCEFA6F0D6EFA6F0240E0901006F420E6C
:104DA000016FB8ECD5F0020E0001EE6F5A0E08014B
:104DB0000119D8A4DEEFA6F0E0EFA6F051EFA7F0BE
:104DC0001AECD8F051EFA7F0180E08010119D8A479
:104DD000ECEFA6F0EEEFA6F0FAEFA6F05A0E0901FE
:104DE000006F180E016F080102515DECCFF0020E4A
:104DF0000001EE6F240E08010119D8A402EFA7F0FC
:104E000004EFA7F010EFA7F05A0E0901006F240E6F
:104E1000016F41ECD1F00901026F030E0001EE6F4A
:104E2000300E08010119D8A418EFA7F01AEFA7F067
:104E300051EFA7F05A0E0901006F300E016F080103
:104E40000251FAECD2F0030E0001EE6F51EFA7F021
:104E500009010069016900C802F901C803F9AA0E35
:104E6000046F050E0001EE6F51EFA7F0080100512D
:104E70000001E86FE96BE951000AD8B442EFA7F0EE
:104E800028EFA7F0E851180AD8B478EFA6F03C0A4A
:104E9000D8B490EFA6F07E0AD8B4E4EFA6F028EFDD
:104EA000A7F0170E0C6E050E0D6E000E0E6E080E9E
:104EB0000F6E010E116E000E106EA0ECCAF0170EF0
:104EC0000001BE6F050EBF6F000EC06F090EC16FEF
:104ED000EEC0C2F0C36B00ECC2F088EFA7F0EA515D
:104EE000E86FE96BE951000AD8B479EFA7F088EFD1
:104EF000A7F0E851000AD8B425EFA6F0010AD8B40B
:104F00002DEFA6F0020AD8B44EEFA6F088EFA7F076
:104F100012000201BEBF8FEFA7F091EFA7F092EF52
:104F2000A7F0BF93BEBF9FEFA7F0BE5106E1BD053E
:104F3000D8B09DEFA7F09FEFA7F0A5EFA7F0000E68
:104F4000386E010E376EA9EFA7F0BDC237F0BEC2B2
:104F500038F0BBC239F0BCC23AF0BFA9B2EFA7F03B
:104F6000B4EFA7F0B8EFA7F0FE0E3926FF0E3A22F5
:104F700022C03BF023C03CF024C03DF025C03EF0F1
:104F800026C03FF027C040F028C041F029C042F0C1
:104F9000000E446E1F0E436E000E04019C6F84EFE2
:104FA000A8F04306D8A044060F0E3B14456E466A8F
:104FB00046BEE4EFA7F0465009E10A0E455CD8A0D2
:104FC000E4EFA7F0E6EFA7F0EEEFA7F0570E4524C9
:104FD000456E000E4620466EF4EFA7F0300E4524D5
:104FE000456E000E4620466EBF0E2B6EFF0E2C6ED9
:104FF0002A502D6E2E6A2B502D262C502E222E50EC
:105000000AE11A0E2D5CD8A008EFA8F00BEFA8F06B
:10501000010E0CEFA8F0000E336E346A33503410DA
:10502000D8B415EFA8F017EFA8F047EFA8F09F0E3F
:105030002B6EFF0E2C6E200E45102D6E000E4610AE
:105040002E6E2B502D262C502E222E500AE11A0E99
:105050002D5CD8A02EEFA8F031EFA8F0010E32EFB2
:10506000A8F0000E356E366A35503610D8B43BEFD6
:10507000A8F03DEFA8F047EFA8F045C00BF046C000
:105080000CF09CECD2F00BC045F00CC046F07D0E4D
:105090004324D96E040E4420DA6E45C0DFFF370684
:1050A000D8A038063906D8A03A063BC02BF03CC041
:1050B0002CF03DC02DF03EC02EF03FC02FF040C080
:1050C00030F041C031F042C032F0050E71EFA8F06F
:1050D000D8903232313230322F322E322D322C32C1
:1050E0002B32E82E68EFA8F02BC03BF02CC03CF030
:1050F0002DC03DF02EC03EF02FC03FF030C040F03C
:1051000031C041F032C042F044BE90EFA8F04450AC
:1051100009E1020E435CD8A090EFA8F092EFA8F04E
:10512000C3EFA8F03B503C103D103E103F10401024
:1051300041104210D8A49FEFA8F0A1EFA8F0D1EF42
:10514000A7F038BEAEEFA8F0385006E13704D8B06B
:10515000ACEFA8F0AEEFA8F0D1EFA7F03ABEB9EFF0
:10516000A8F03A5008E13904D8A0B9EFA8F0BBEF95
:10517000A8F0C3EFA8F00201BFB3C1EFA8F0C3EFDE
:10518000A8F0D1EFA7F00201BFA9C9EFA8F0CBEFBB
:10519000A8F0E1EFA8F04306D8A044067D0E432412
:1051A000D96E040E4420DA6E2AC0DFFF4306D8A071
:1051B00044067D0E4324D96E040E4420DA6E300E70
:1051C000DF6E20C015F021C016F07D0E4324176E4F
:1051D000040E4420186E39C019F03AC01AF07CEC65
:1051E000C8F015C020F016C021F01200010E000119
:1051F000626F000E616F000E646F080E636F060E23
:10520000656F040E666F010E686F000E676F690EA2
:10521000056E000E066EB90E076E030E086E000EC8
:105220000A6E060E096E70ECD4F0FF0E0301001535
:10523000236E000E0115246E000E0215256E000E61
:105240000315266E23C026F0256A246A236A000E01
:105250000015276EFF0E0115286E000E0215296E2F
:10526000000E03152A6E29C02AF028C029F027C095
:1052700028F0276A00C32BF001C32CF002C32DF0E5
:1052800003C32EF02CC02BF02DC02CF02EC02DF01F
:105290002E6A000E2B142F6EFF0E2C14306E000E93
:1052A0002D14316E000E2E14326E00C333F001C384
:1052B00034F002C335F003C336F0190E65EFA9F0E0
:1052C000D8903632353234323332E82E60EFA9F0DE
:1052D000FF0E3314376E000E3414386E000E351482
:1052E000396E000E36143A6E2F5037103B6E305028
:1052F00038103C6E315039103D6E32503A103E6ECF
:1053000027503B103F6E28503C10406E29503D10F6
:10531000416E2A503E10426E23503F1000016F6FC5
:1053200024504010706F25504110716F265042106C
:10533000726FFF0E1F14236E000E2014246E000ED9
:105340002114256E000E2214266E23C026F0256A35
:10535000246A236A000E1F14276EFF0E2014286E85
:10536000000E2114296E000E22142A6E29C02AF084
:1053700028C029F027C028F0276A1FC02BF020C0C2
:105380002CF021C02DF022C02EF02CC02BF02DC00F
:105390002CF02EC02DF02E6A000E2B142F6EFF0E57
:1053A0002C14306E000E2D14316E000E2E14326E41
:1053B0001FC033F020C034F021C035F022C036F0D9
:1053C000190EE8EFA9F0D890363235323432333244
:1053D000E82EE3EFA9F0FF0E3314376E000E3414FD
:1053E000386E000E3514396E000E36143A6E2F509A
:1053F00037103B6E305038103C6E315039103D6ED6
:1054000032503A103E6E27503B103F6E28503C10F1
:10541000406E29503D10416E2A503E10426E23507E
:105420003F10796F245040107A6F255041107B6FE8
:10543000265042107C6F000E736F000E746F000ECA
:10544000756F000E766F000E776F000E786F2F0E5F
:10545000176EFD0E186E080E1A6E060E196E3BECD6
:10546000AEF00001606F6005D8A439EFAAF03BEF01
:10547000AAF054EFAAF0610E056E000E066E000E43
:10548000086E1C0E076EDAECD0F0DFECC6F00001FF
:10549000606F6005D8A44FEFAAF051EFAAF054EF67
:1054A000AAF0050E55EFAAF060511200580E0C6ECE
:1054B000040E0D6E98ECB2F00CC0C8F10DC0C9F12D
:1054C00000018FBF6DEFAAF08F5109E1050E8E5DCF
:1054D000D8A06DEFAAF06FEFAAF0B2EFABF098ECA6
:1054E000D4F005500101CA6F98ECD4F005C0C1F2A8
:1054F00006C0C2F2060E0101CA19D8A482EFAAF0B2
:1055000084EFAAF08CEFAAF0000E0201C26F000E29
:10551000C16F040E2FECCCF0010E03016B250001CE
:10552000906F000E03016C210001916F0201C151C7
:105530000001901909E10201C25100019119D8A49A
:10554000A4EFAAF0A6EFAAF083EFABF0010E0201E0
:10555000C1250301696F000E0201C22103016A6FB8
:10556000FC0E00018E258E6FFF0E8F218F6F0101C3
:10557000C85100018E5D0101C95100018F59D8B099
:10558000C4EFAAF0C6EFAAF060EFABF0030E010182
:10559000CA19D8A4CEEFAAF0D0EFAAF060EFABF012
